S01600006275696C642F4C4142345F506F6E672E733139A9
S315200000000748854601F004FB01F0CEFA01F036FAE6
S3152000001001F0DCF901F07CF801F008FAFEE70000B7
S315200000200038002080B584B000AF0200FB1D1A7096
S315200000300A4B1A680F217B18127D1A70FA1D7B183D
S3152000004012781B781343DAB2044B1B6804210A4347
S31520000050D2B21A75C046BD4604B080BDC821002064
S3152000006080B584B000AF0200FB1D1A700E4B1A68D3
S315200000700F217B18127D1A70FB1D1B785BB2DB43A8
S315200000805BB27A18127852B213405AB27B181A70A1
S31520000090054B1B687A18127804210A43D2B21A75C6
S315200000A0C046BD4604B080BDC821002080B582B0C0
S315200000B000AF0200FB1D1A704020FFF7B3FF064B6E
S315200000C01B68FA1D12785A754020FFF7C9FFC046F3
S315200000D0BD4602B080BDC046C821002080B582B092
S315200000E000AF4020FFF79EFF064B1A68FB1D527C8F
S315200000F01A704020FFF7B4FFFB1D1B781800BD4681
S3152000010002B080BDC821002080B582B000AF0200B9
S31520000110FB1D1A700120FFF7A3FF0220FFF7A0FFA7
S31520000120FB1D1B781800FFF7C1FFC046BD4602B075
S3152000013080BD80B582B000AF0200FB1D1A70012081
S31520000140FFF770FF0220FFF78BFFFB1D1B781800BF
S31520000150FFF7ACFFC046BD4602B080BD90B583B068
S3152000016000AF0C4B1B6800225A800120FFF778FF56
S315200001700220FFF757FFFC1DFFF7B0FF0300237097
S31520000180044B1B68044A5A80FB1D1B781800BD4689
S3152000019003B090BDC82100205555000090B583B00E
S315200001A000AF0C4B1B6800225A800120FFF73AFF54
S315200001B00220FFF737FFFC1DFFF790FF0300237097
S315200001C0044B1B68044A5A80FB1D1B781800BD4649
S315200001D003B090BDC82100205555000080B584B0DD
S315200001E000AFB9607A600F23FB18021C1A70C04654
S315200001F0FFF7B4FF03001A0080231340802BF7D0AB
S31520000200082000F0A3F90F23FB181B781800FFF72E
S315200002107BFF7A68BB6810009847C046BD4604B08D
S3152000022080BD80B584B000AFB9607A600F23FB181B
S31520000230021C1A70C046FFF791FF03001A008023A4
S315200002401340802BF7D0082000F080F90F23FB18ED
S315200002501B781800FFF76DFF7A68BB681000984777
S31520000260C046BD4604B080BD80B500AF0D4B2822E8
S3152000027019003820FFF7B2FF0A4B282219000E205A
S31520000280FFF7ACFF084B022219000120FFF7A6FF5B
S31520000290044B282219000420FFF7A0FFC046BD46C4
S315200002A080BDC0464D0500209305002080B584B052
S315200002B000AF786039607B68013BFB603B68022BAE
S315200002C002D1FB684033FB60FB68DBB280225242DE
S315200002D01343DBB21800FFF717FFC046BD4604B034
S315200002E080BD80B582B000AF0200FB1D1A700549A3
S315200002F0FB1D1B782B221800FFF793FFC046BD4637
S3152000030002B080BD4D05002080B582B000AF786078
S315200003107B681B7C073302211800FFF7C7FF7B6829
S315200003205B69DBB23033DBB21800FFF7DAFFC04679
S31520000330BD4602B080BD80B584B000AF78607B68D2
S315200003401B7C01211800FFF7B1FF7B68FB6006E0EC
S31520000350FB685A1CFA601B781800FFF7C2FFFB687F
S315200003601B78002BF4D1C046C046BD4604B080BDE4
S3152000037090B587B000AF786039607B681800FFF7CA
S31520000380DAFF3B681800FFF7D6FF0C243B19184A02
S3152000039003CA03C37B681B7C02211800FFF786FF74
S315200003A03B197B6106E07B695A1C7A611B78180031
S315200003B0FFF797FF7B691B78002BF4D13B681B7CEA
S315200003C002211800FFF772FF0C23FB187B6106E061
S315200003D07B695A1C7A611B781800FFF782FF7B69BC
S315200003E01B78002BF4D1C046C046BD4607B090BD51
S315200003F07023002080B586B000AF786000F0F9F851
S315200004000C23FB18154A1168196092889A800121DD
S315200004100120FFF74BFF7B687B6106E07B695A1C56
S315200004207A611B781800FFF75CFF7B691B78002B2D
S31520000430F4D10C23FB187B6106E07B695A1C7A6198
S315200004401B781800FFF74DFF7B691B78002BF4D132
S31520000450C046C046BD4606B080BDC04678230020B3
S31520000460B0B58CB000AF204B022219000120FFF757
S31520000470B5FE14257B191D4A13CA13C303CA03C329
S3152000048012881A803B001A4A13CA13C311681960CE
S3152000049092889A8001210120FFF708FF7B19FB62D1
S315200004A006E0FB6A5A1CFA621B781800FFF719FF50
S315200004B0FB6A1B78002BF4D102210120FFF7F6FE00
S315200004C03B00FB6206E0FB6A5A1CFA621B781800A6
S315200004D0FFF707FFFB6A1B78002BF4D1C046C04606
S315200004E0BD460CB0B0BDC046930500208023002039
S315200004F09823002080B582B000AF134B7B607B68C9
S3152000050000221A6029231B02190A7B685A680902ED
S31520000510090A120E12060A435A607B689A68120E5E
S3152000052012069A607B6805221A60C0467B681B68A3
S31520000530DB03DB0FDBB2002BF8D07B6800221A60CE
S31520000540C046BD4602B080BD10E000E080B582B056
S3152000055000AF78607B68FA229100180001F0CAF893
S3152000056003007B607B6801337B600AE0FFF7C2FFF4
S31520000570FFF7C0FFFFF7BEFFFFF7BCFF7B68013B1D
S315200005807B607B68002BF1D1C046C046BD4602B0D9
S3152000059080BD80B584B000AF78607B68FA22910078
S315200005A0180001F0A7F803007B607B6801337B60AD
S315200005B00023FB600AE0FFF79DFFFFF79BFFFFF795
S315200005C099FFFFF797FFFB680133FB607A681300FA
S315200005D05B019B1A9B009B18DB001A00FB68934269
S315200005E0E9D3C046C046BD4604B080BDF0DF7047A3
S315200005F0C046F1DF7047C046F2DF7047C046F3DFE2
S315200006007047C046F0B587B000AF78607B6800229F
S315200006109A5610257B191A707B6801229A560F214B
S315200006207B181A707B6802229A560E26BB191A70FE
S315200006307B6803229A560D203B181A703B181B78AC
S315200006405BB2DAB27B181B785BB2DBB2D31ADBB2B1
S315200006505BB2180000F017FA03001C00BB191B78C8
S315200006605BB2DAB27B191B785BB2DBB2D31ADBB290
S315200006705BB2180000F007FA030001229C4201DC5D
S3152000068000231A1CD2B214217B181A707B181B78EF
S31520000690002B0FD00F23FA181023FB181100180077
S315200006A000F008FA0D23FA180E23FB181100180083
S315200006B000F000FA10217B1800229A560E203B18D3
S315200006C01B785BB29A420DDD3A187B181100180090
S315200006D000F0F0F90D23FA180F23FB18110018006B
S315200006E000F0E8F90E23FB181B785BB2DAB2102370
S315200006F0FB181B785BB2DBB2D31ADAB21323FB18D2
S315200007001A700D26BB191B785BB2DAB20F257B193E
S315200007101B785BB2DBB2D31ADBB25BB21222BC18F7
S31520000720180000F0B0F9030023701723FB180022ED
S315200007301A701623FB187A1912781A707B19002260
S315200007409A56BB191B785BB29A4201DA012201E064
S3152000075001235A421123FB181A701523FB18102265
S31520000760BA1812781A704BE01423FB181B78002B4A
S315200007700CD01623FB1800229A561523FB181B783B
S315200007805BB219001000FFF737FF0BE01523FB18AB
S3152000079000229A561623FB181B785BB2190010000C
S315200007A0FFF72AFF17217B181A781223FB181B78CC
S315200007B0D318DAB27B181A707A1813203B181278DD
S315200007C052B21B785BB29A4211DB16243B191A7877
S315200007D01123FB181B78D318DAB23B191A707B1831
S315200007E01A783B181B78D31ADAB27B181A7015219F
S315200007F07B181B785BB2DBB20133DAB27B181A7036
S315200008000E23FB181B785BB21522BA18127852B247
S315200008109A42A9DDC0461800BD4607B0F0BDF0B526
S3152000082087B000AF786017257B197A6812781A701E
S315200008301626BB197A6852781A7015217B187A68A1
S3152000084092781A701423FB187A68D2781A701020BE
S315200008503B187A1912781A703B18BA1912785A70FE
S315200008607B191A787B181B78D318DBB25AB20C2462
S315200008703B191A703B19BA1912785A7008243B1979
S315200008803A1812881A803B1902210C22BA181288AB
S315200008905A523B191800FFF7B5FE7B191A78152115
S315200008A07B181B78D318DBB25AB221007B181A703A
S315200008B0BB191A781423FB181B78D318DBB25AB24B
S315200008C07B18DA700C007B181800FFF79BFEBB190B
S315200008D01A781423FB181B78D318DBB25AB22100DE
S315200008E07B185A707B187A1912781A700C007B18AC
S315200008F01800FFF787FE21007B187A1912789A7064
S315200009007B18BA191278DA707B181800FFF77AFE6E
S31520000910C0461800BD4607B0F0BDF0B587B000AFA1
S3152000092078607B6800229A5610217B181A707B68A3
S3152000093001229A567B185A707B685B687B6128E097
S315200009407B6900229A560C203B181A707B6901227B
S315200009509A563B185A7008257B191026BA19128800
S315200009601A807B19022104003A1812885A527B19E0
S315200009701800FFF747FE20003B1800229A56BB19A5
S315200009801A703B1801229A56BB195A707B695B680C
S315200009907B617B69002BD3D1C0461800BD4607B0CA
S315200009A0F0BD90B587B000AF78607B68DB683B61AF
S315200009B07B681B69FB607B681B680C33BB60172355
S315200009C0FB1800221A701CE017243B191B785B00C9
S315200009D0BA68D3181B785BB21A003B69D0183B194A
S315200009E01B785B00BA68D3185B785BB21A00FB6889
S315200009F0D3181900FFF700FE3B191A783B1901326C
S31520000A001A701723FB181B781F2BDDD9C046C0464A
S31520000A10BD4607B090BD80B588B000AF78607B68D2
S31520000A20DB68BB617B681B697B617B681B680C3359
S31520000A303B610F23FB1820221A700023FB6117E06D
S31520000A40FB695B003A69D3181B785BB21A00BB6955
S31520000A50D018FB695B003A69D3185B785BB21A0041
S31520000A607B69D3181900FFF7CAFDFB690133FB61C7
S31520000A700F23FB181B78FA699A42E1DBC046C04671
S31520000A80BD4608B080BD80B582B000AF0200FB1D18
S31520000A901A70FB1D1B787F2B05D9FB1D1B785B422B
S31520000AA0DBB25BB202E0FB1D1B785BB21800BD46D1
S31520000AB002B080BD80B584B000AF786039607B68B5
S31520000AC000229A560F217B181A703B6800229A56EC
S31520000AD07B681A707B1800229A563B681A70C046AB
S31520000AE0BD4604B080BD0000B0B584B000AF284B31
S31520000AF000221A71274B00221A700F23FB1804229A
S31520000B001A700123BB6039E00F23FB181B78002BDA
S31520000B1038D0BB68180000F041F800F06FF8FB1DD4
S31520000B2000221A7021E0FB1D1B781B4AD35C19009A
S31520000B300F257B191B780422D41ABB68180000F0F5
S31520000B40ADF803001A00124B1A55114B1B790133CD
S31520000B50DAB20F4B1A717B191A787B19013A1A707F
S31520000B60FB1D1A78FB1D01321A700A4B1B78FA1DE1
S31520000B7012789A42D7D3BB680133BB60BB68042B7B
S31520000B80C2D900E0C046024B1800BD4604B0B0BD35
S31520000B90E0230020EC230020E823002080B584B049
S31520000BA000AF7860144BFB607B68042B1BD07B68FE
S31520000BB0042B1CD87B68032B11D07B68032B16D8FB
S31520000BC07B68012B03D07B68022B04D00FE0FB68E7
S31520000BD010225A750CE0FB6820225A7508E0FB6843
S31520000BE040225A7504E0FB6880225A7500E0C04610
S31520000BF0C046BD4604B080BD000C024080B582B020
S31520000C0000AF234B7B60FB1C7A68527C1A70FB1C5E
S31520000C101B780822134009D01E4B1B785A1CD1B2D0
S31520000C201C4A11701A001C4B04219954FB1C1B787A
S31520000C300422134009D0174B1B785A1CD1B2154AEF
S31520000C4011701A00144B03219954FB1C1B780222A5
S31520000C50134009D00F4B1B785A1CD1B20D4A117084
S31520000C601A000D4B02219954FB1C1B7801221340BC
S31520000C7009D0084B1B785A1CD1B2064A11701A00AB
S31520000C80054B01219954C046BD4602B080BDC046E1
S31520000C90000C0240EC230020E823002080B582B01F
S31520000CA000AF786039607B68013B7B603B68013B25
S31520000CB03B60054A7B689B00D2183B68D3181B789B
S31520000CC01800BD4602B080BDB023002080B500AF1D
S31520000CD01E4B18221A601E4B1A681D4B8021C90113
S31520000CE00A431A601B4B1B681B4A1A80194B1B6848
S31520000CF0AA22D2015A80174B1B68184A9A60154BB4
S31520000D001B689B889AB2134B1B68FF210A4092B23C
S31520000D109A80104B1B68DA680E4B1B681204120C63
S31520000D20DA600C4B1B68DA680A4B1B68AA21090497
S31520000D300A43DA600A4B1B68074A1A60084B1B688D
S31520000D40064A9A60C046BD4680BDC046303802403D
S31520000D5044380240CC2100205555000055555555A4
S31520000D60D021002080B584B000AF0F23FB180022CD
S31520000D701A70FFF7B9FE0300BB600E23FB18002292
S31520000D801A7015E00E23FB181A78FB1DB9688A5CC9
S31520000D901A70FB1D1B78052B03D10F23FB1801228C
S31520000DA01A70C0460E217B181A787B1801321A70E9
S31520000DB0BB681B790E22BA1812789A42E2D30F2307
S31520000DC0FB181B78002B00D1D3E7C046C046BD4692
S31520000DD004B080BDF0B585B000AF786039607B681F
S31520000DE0DA680F217B181A707B68DB68DAB27B68B9
S31520000DF01B685B68DBB2D318DAB20E203B181A7078
S31520000E007B681A690D243B191A707B681B69DAB254
S31520000E107B681B689B68DBB2D318DAB20C257B197A
S31520000E201A703B68DA680B26BB191A703B68DB68B8
S31520000E30DAB23B681B685B68DBB2D318DAB20A23E6
S31520000E40FB181A703B681A690923FB181A703B684D
S31520000E501B69DAB23B681B689B68DBB2D318DAB22F
S31520000E600823FB181A707A180A23FB18127852B234
S31520000E701B785BB29A421BDC3A18BB19127852B225
S31520000E801B785BB29A4213DB3A1908217B18127839
S31520000E9052B21B785BB29A420ADC7A190923FB18F4
S31520000EA0127852B21B785BB29A4201DB012300E032
S31520000EB00023DBB21800BD4605B0F0BDF0B587B003
S31520000EC000AFF860B9607A6017257C19BA68FB68AC
S31520000ED011001800FFF77EFF030023701626BC19A9
S31520000EE07A68FB6811001800FFF774FF030023706F
S31520000EF07B191B78002B03D1BB191B78002B01D043
S31520000F00012300E00023DBB21800BD4607B0F0BD88
S31520000F1080B582B000AF78607B689B697A681000E4
S31520000F2098477B68DA687B685B68D2187B68DA60EA
S31520000F307B681A697B689B68D2187B681A617B6814
S31520000F401800FFF72EFDC046BD4602B080BD80B515
S31520000F5084B000AFF860B9607A60FB68BA685A60FE
S31520000F60FB687A689A60C046BD4604B080BD80B5ED
S31520000F708CB000AF78607B68DA682E217B181A80E7
S31520000F807B68DB689AB27B681B685B689BB2D31868
S31520000F909AB22C23FB181A807B681A692A23FB181D
S31520000FA01A807B681B699AB27B681B689B689BB218
S31520000FB0D3189AB22823FB181A807B1800229B5E2E
S31520000FC0002B0ADC20217B182C4A12881A80242325
S31520000FD0FB187A1812881A803BE02C23FB18002273
S31520000FE09B5E802B0ADD20217B18254A12881A80D9
S31520000FF02423FB187A1812881A802AE02A23FB1841
S3152000100000229B5E002B0ADC20217B181D4A1288B9
S315200010101A802423FB187A1812881A8019E02823AC
S31520001020FB1800229B5E402B0ADD20217B18164AE6
S3152000103012881A802423FB187A1812881A8008E04E
S3152000104020217B1800221A802423FB187A18128864
S315200010501A802423FA1800231178FF200140FF204C
S3152000106083430B435278FF210A40120207490B4063
S315200010701343181CBD460CB080BDC046D0230020AB
S31520001080D4230020D8230020DC230020FF00FFFFEC
S3152000109080B584B000AFF860B9607A60FB6805223D
S315200010A05A60FB6800229A60FB683E22DA60FB6881
S315200010B01E221A61BB6800225A60BB6800229A6011
S315200010C0BB680A22DA60BB681E221A617B6800228E
S315200010D05A607B6800229A607B686E22DA607B68A1
S315200010E01E221A61C046BD4604B080BD80B582B0BE
S315200010F000AF78607B681800FFF77CF9034B180077
S31520001100FFF747FAC046BD4602B080BD88130000EF
S3152000111080B584B000AFFFF7D9FDFFF767FAFFF778
S31520001120A3F8FFF766FAFFF79BF9FFF71BFEFFF719
S3152000113060FA924A9249934B1800FFF7A9FF924A08
S31520001140924B11001800FFF713F9904B1800FFF788
S31520001150DBF88D4B1800FFF7D7F8FFF7C5FC030027
S31520001160BB600F23FB1800221A700E23FB180022E7
S315200011701A70FB1D03221A70BB681B79002B4ED0F8
S315200011800D23FB1800221A7042E00D23FB181A7853
S31520001190BB1DB9688A5C1A70BB1D1B78092B26D02B
S315200011A02FDC072B0FD02CDC012B02D0032B14D0E5
S315200011B027E00F217B181B785BB2DBB2013BDAB24A
S315200011C07B181A701EE00F217B181B785BB2DBB2EE
S315200011D00133DAB27B181A7014E00E217B181B78C3
S315200011E05BB2DBB2013BDAB27B181A700AE00E2141
S315200011F07B181B785BB2DBB20133DAB27B181A702C
S3152000120000E0C0460D217B181A787B1801321A702F
S31520001210BB681B790D22BA1812789A42B5D3584B5F
S315200012201B6A0F22BA18127852B252005448002173
S315200012309847524B1B6A0E22BA18127852B25200A5
S315200012404E48002198474E4B1B69032B08DD4C4B1B
S315200012501B69342B04DC4A4BDB69494A100098474A
S31520001260464B1B69032B08DD444B1B69342B04DCDE
S31520001270424BDB69414A10009847424BDB69414AA1
S31520001280100098473D4A3E493E4B1800FFF716FE90
S31520001290031E04D03B4B5B685A423A4B5A60394B8B
S315200012A01800FFF764FE031C1A1C3B1D1A800C2332
S315200012B0FB1800221A703B1D1B78002B2ED03B1DDD
S315200012C05B785BB2752B08D027DC722B1BD024DC15
S315200012D0642B08D06C2B0CD01FE02A4B9B685A42FB
S315200012E0284B9A601AE0274B9B685A42254B9A60F6
S315200012F014E0254B5B695A1C234B5A610C23FB18BF
S3152000130001221A700AE0214B5B695A1C1F4B5A6155
S315200013100C23FB1801221A7000E0C0461B4B5A69A9
S31520001320FB1D1B789A4205D2174B5A69FB1D1B7869
S315200013309A421BD3154B5A69FB1D1B789A4204D33C
S31520001340124B1800FFF7D2FE09E00F4B5A69FB1D1E
S315200013501B789A4203D30C4B1800FFF7C7FE0B4BA2
S3152000136000225A61084B00225A61DAE60C23FB1848
S315200013701B78002B00D1E2E6D9E6C0469422002055
S31520001380B822002024220020F8220020DC2200207F
S315200013900B4A08B50346106828B10A4903448B4214
S315200013A007D8136008BD08480649106003448B42DD
S315200013B0F7D900F0E1FC0C2303604FF0FF3008BDA5
S315200013C0F02300200034002000300020134B144A64
S315200013D010B5144C002193422160044603D2D21A40
S315200013E0184600F0B0FC20460F4C00F089F8216822
S315200013F0002348680222194600F04AFA2068002392
S3152000140019460222806800F043FA20680023BDE8CE
S315200014101040C0680222194600F03ABAE0230020A4
S3152000142044250020F02300202023002000F072B85D
S31520001430431E012B084601D900207047114600F0B3
S3152000144099B800BF0B4608B10020704711461846D0
S3152000145000F06EB84FF0FF30704700BF4FF0FF30FE
S31520001460704700BF002070470020704701380128D0
S3152000147001D90020704700F095B800BF184B194AD3
S31520001480596C194841F0100110B45964196B41F098
S3152000149001011963596A41F010015962596A21F014
S315200014A010015962196941F001011961196921F088
S315200014B001011961536A43F4EE635362136843F4DE
S315200014C020131360D36840F2D92442F20C0143F46E
S315200014D08013D36084605DF8044BC160704700BF01
S315200014E0003802400000024000100140034B1868FB
S315200014F010F020001CBF5868C0B270470010014091
S31520001500034B002040F2D9229A6058611861704737
S315200015100010014008B5044B1B68986800F0A4F938
S31520001520024B0022DA6008BD202300200010014073
S31520001530094A00B58646002013689B0608D55368DD
S3152000154013F0FF03F44603D00CF8013B0130E646C6
S315200015508842F1D15DF804FB00100140044A13686B
S315200015601B06FCD50A28506001D10D20F7E77047ED
S31520001570001001408446084689B1094A00B50CEBA3
S31520001580010E1CF8011B13681B06FCD50A295160A5
S3152000159001D10D21F7E7E645F3D15DF804FB70474D
S315200015A00010014001207047164B17481A6B174947
S315200015B042F0180210B41A635C6C44F480445C64F4
S315200015C01C6944F018041C611C6924F018041C6171
S315200015D05C6944F480445C615C6924F480445C6109
S315200015E000224FF0AA3302605DF8044BC3604260CC
S315200015F08260026142610A60CB604A608A600A6149
S315200016004A6170470038024000100240000C024038
S31520001610334A34481368002143F0010382B0136033
S315200016209160136823F0847323F480331360506031
S31520001630136823F480231360D1600091019113680D
S3152000164043F48033136003E0009BB3F5A04F09D029
S31520001650136803F400330193009B01330093019B2D
S31520001660002BF1D01E4B1B6813F4003318BF012347
S315200016700193019B012B01D002B07047184B1A49E8
S315200016801A6C1A4842F080521A640A6842F44042A0
S315200016900A609A689A609A6842F400429A609A6848
S315200016A042F4A0529A6058601A6842F080721A601A
S315200016B01A689201FCD50E4A40F2056111609968BC
S315200016C021F003019960996841F00201A2F5806238
S315200016D09960936803F00C03082BFAD102B0704787
S315200016E000380240103000240070004008544008A2
S315200016F0003C0240002902D0B0FBF1F0704708B14F
S315200017004FF0FF3000F008B80029F8D00246B0FBB1
S31520001710F1F000FB11217047704700BFB1F90C2092
S31520001720F8B5160705460C4651D44B68002B02DC4B
S315200017300B6C002B49DDE66A002E46D0002312F4FE
S3152000174080522F682B6031D0626DA389590705D549
S315200017506368D21A636B0BB1236CD21A0023E66A34
S31520001760216A2846B047421CB4F90C3006D12968B4
S315200017701D2945D8274ACA40D60741D5002262608E
S31520001780D9042269226004D5421C01D12B6803B9F1
S315200017906065616B2F60C1B104F14403994202D0A8
S315200017A0284600F06BFB002363630EE0216A0123C9
S315200017B02846B0470246501CC7D12B68002BC4D000
S315200017C01D2B01D0162B19D12F6000201DE00F698B
S315200017D0002FFAD093070E6808BF4B690F6018BF19
S315200017E00023F61B8B60002EEFDD216AD4F828C07B
S315200017F033463A462846E047002807DCB4F90C3041
S3152000180043F04003A3814FF0FF30F8BD0744361A5A
S31520001810E9E700BF0100402038B50B6905460C46B4
S3152000182013B90025284638BD18B1036A0BB900F054
S31520001830DBF9B4F90C30002BF3D0626ED00704D458
S31520001840990502D4A06D00F0A2FA28462146FFF79A
S3152000185065FF636EDA070546E4D4A3899B05E1D4C8
S31520001860A06D00F09AFADDE7014620B9044A054941
S31520001870054800F0EDB9054B1868FFF7CDBF00BF4E
S3152000188014230020191800202423002020230020C0
S315200018902DE9F7431D46574B1F6804460E469046D2
S315200018A027B13B6A13B9384600F09EF9B8F1020F0A
S315200018B006D0B8F1010F00F29A80002DC0F2978071
S315200018C0636ED90705D4A3899A0502D4A06D00F0CA
S315200018D05EFA21463846FFF79FFF616B41B104F15E
S315200018E04403994202D0384600F0C8FA00236363C5
S315200018F00023A3616360A3891B0603D521693846AB
S3152000190000F0BCFAA38923F44A6323F00303B8F159
S31520001910020FA38161D001AB6A462146384600F00A
S31520001920B5F9A3891843A0812DBB009D284600F058
S31520001930EFFA0646002852D1DDF80090A94540D19D
S315200019404FF0FF35B4F90C3043F00202A281002299
S31520001950A26004F147022260226101226261626E66
S31520001960D60704D4980502D4A06D00F016FA2846AE
S3152000197003B0BDE8F083002ED8D03B6A13B93846B1
S3152000198000F032F9B8F1010F08BFA389266004BF21
S3152000199043F00103A381B4F90C3013F00802C4E923
S315200019A004651ED0D90741BF00226D42A260A56101
S315200019B058BFA560626ED20701D49B0513D50025BA
S315200019C0D5E7484600F0A4FA06460028B8D0A389F1
S315200019D043F08003A3814D46CFE70025B2E7A94611
S315200019E0F5E7A260E6E7A06D00F0D7F9E7E74FF04C
S315200019F0FF35BCE720230020002310B50446C0E9AC
S31520001A000033C0E90433836081814366C2818361E8
S31520001A10194608225C3000F096F90D4B63620D4B97
S31520001A20A3620D4BE3620D4B23630D4B24629C4254
S31520001A3006D003F16802944202D0D0339C4205D1ED
S31520001A4004F15800BDE8104000F09DB910BD00BF5C
S31520001A508D200020B3200020EB2000201121002023
S31520001A60F4230020024A0349034800F0F1B800BFDE
S31520001A7014230020191800202423002041680C4B31
S31520001A80994210B5044601D0FFF7C6FEA168094B5E
S31520001A90994202D02046FFF7BFFEE168064B9942E5
S31520001AA004D02046BDE81040FFF7B6BE10BD00BFEB
S31520001AB0F42300205C240020C424002008B54B6EAB
S31520001AC0DA0705D48B899B0502D4886D00F05FF96F
S31520001AD0002008BD08B54B6EDA0705D48B899B0517
S31520001AE002D4886D00F059F9002008BD0C4B0D4A30
S31520001AF00D4810B504211A600022FFF77DFF0A4B1E
S31520001B0001221C46092103F16800FFF775FF04F145
S31520001B10D0000222BDE810401221FFF76DBF00BFA2
S31520001B202C250020651A0020F4230020014800F00F
S31520001B302EB900BF37250020014800F02EB900BF7E
S31520001B4037250020F8B50746FFF7F0FF234B1B6823
S31520001B500BB9FFF7CBFF224ED6E90134013B0FD557
S31520001B603568002D38D14FF4D671384600F002FA88
S31520001B70044628BB3060FFF7DFFF0C233B601BE0E9
S31520001B80B4F90C50D5B9174BE36004F158006566DB
S31520001B9000F0F9F8FFF7D0FFC4E90155C4E9045570
S31520001BA02560A5610822294604F15C0000F0CBF8E7
S31520001BB0C4E90D55C4E912552046F8BD6834CDE771
S31520001BC00423056043600C302946A0604FF4D07290
S31520001BD000F0B9F8254634602E46BDE72C250020B6
S31520001BE0142300200100FFFF10B50446FFF79EFFD7
S31520001BF0236A1BB1BDE81040FFF79EBF044B23624A
S31520001C00044B1B68002BF5D1FFF770FFF2E700BFEE
S31520001C107D1A00202C25002008B5FFF787FFBDE898
S31520001C200840024A0249002000F012B8142300207E
S31520001C30BD1A002008B5044A0449002000F008F81F
S31520001C40BDE80840FFF778BF14230020D51A0020EE
S31520001C502DE9F8430746884614460026D4E901951F
S31520001C60B9F1010905D52468002CF7D13046BDE825
S31520001C70F883AB89012B07D9B5F90E30013303D090
S31520001C8029463846C04706436835E9E770B50C460D
S31520001C90B1F90E10002996B015461E460ADAA1891A
S31520001CA011F0800113D14FF48062002031602A6048
S31520001CB016B070BD6A4600F0CFF80028EFDB019918
S31520001CC001F47041A1F5005359425941EBE7002137
S31520001CD04022EAE78B8973B59E0705460C4607D551
S31520001CE004F14703236023610123636102B070BDC1
S31520001CF001AB6A46FFF7CAFF009E2846314600F030
S31520001D0039F9B4F90C3038B99A05EFD423F0030326
S31520001D1043F00203A381E3E743F08003A381019B01
S31520001D202060C4E90406002BE0D0B4F90E10284642
S31520001D3000F012F80028D9D0A38923F0030343F03A
S31520001D400103A381D2E702440346934200D17047A0
S31520001D5003F8011BF9E7000038B5064D00230446B9
S31520001D6008462B60FFF782FB431C02D12B6803B188
S31520001D70236038BD38250020014B1868704700BF06
S31520001D802023002070477047704770477047704780
S31520001D900120704701207047704770472D4B1B6804
S31520001DA0834270B5044653D0C3691BB3DB6863B165
S31520001DB00025E369DB685959B1B90435802DF8D17E
S31520001DC0E3692046D96800F059F8E369196811B12A
S31520001DD0204600F053F8E3699D685DB12946204608
S31520001DE02D6800F04BF8F8E70E68204600F046F81C
S31520001DF03146E1E7616911B1204600F03FF8E1691B
S31520001E0011B1204600F03AF8216B11B1204600F0BE
S31520001E1035F8616B11B1204600F030F8A16B11B195
S31520001E20204600F02BF8A16C11B1204600F026F8D0
S31520001E30616C11B1204600F021F8E16A11B120460B
S31520001E4000F01CF8236A1BB12046BDE870401847F5
S31520001E5070BD00BF2023002038B5074D002304465F
S31520001E60084611462B60FFF7FDFA431C02D12B686A
S31520001E7003B1236038BD00BF3825002038B505469C
S31520001E80002941D051F8043C0C1F002BB8BFE418A0
S31520001E9000F0F0F81D4A136833B9636014602846D1
S31520001EA0BDE8384000F0ECB8A34208D920682118D4
S31520001EB08B4201BF19685B6809182160EDE71A4655
S31520001EC05B680BB1A342FAD911685018A0420BD116
S31520001ED020680144501883421160E0D118685B687D
S31520001EE0536008441060DAE702D90C232B60D6E74A
S31520001EF0206821188B4204BF19685B68636004BFA1
S31520001F00091821605460CAE738BD00BF402500206B
S31520001F10024B0146186800F02DB800BF2023002090
S31520001F20024B01461868FFF7A9BF00BF20230020F7
S31520001F3070B50F4E0C463168054611B900F010F900
S31520001F4030602146284600F00BF9431C03D14FF0A0
S31520001F50FF34204670BDC41C24F00304A042F8D0F0
S31520001F60211A284600F0FCF80130F2D1EFE700BF35
S31520001F703C2500202DE9F843CD1C25F00305083526
S31520001F800C2D38BF0C25002D064601DBA94204D9AD
S31520001F900C2333600020BDE8F883DFF8D48000F0FE
S31520001FA069F8D8F800301C4644BB29463046FFF76E
S31520001FB0BFFF431C044658D1D8F800402746002FBF
S31520001FC043D1002C4BD023683946304604EB030915
S31520001FD000F0C6F8814542D121686D1A294630465F
S31520001FE0FFF7A6FF01303AD023682B442360D8F8A8
S31520001FF000305A6862BBC8F800700FE02268521B96
S3152000200020D40B2A17D96119A342256018BF59601D
S31520002010636808BFC8F8001062514B60304600F074
S315200020202FF804F10B00231D20F00700C21A1CBF55
S315200020301B1AA350AFE76268A3420CBFC8F8002062
S315200020405A60EBE723466468AEE73C467F68B6E70E
S315200020501A465B68A342FBD100235360DEE70C23BC
S315200020603360304600F00CF894E70560D6E700BFF1
S31520002070402500200148FFF78ABE00BF34250020F6
S315200020800148FFF78ABE00BF3425002010B50C4654
S31520002090B1F90E1000F052F80028ABBF636DA3898A
S315200020A01B1823F48053ACBF6365A38110BD0020A9
S315200020B070472DE9F0411F468B89DB0505460C4606
S315200020C0164605D5B1F90E100223002200F024F899
S315200020D0A389B4F90E1023F48053A38132463B46DC
S315200020E02846BDE8F04100F04BB810B50C46B1F9D2
S315200020F00E1000F011F8B4F90C30421C0BBF23F47B
S31520002100805343F48053A381A38118BF606510BD1B
S31520002110B1F90E1000F046B838B5074D044608460A
S31520002120114600222A601A46FFF79EF9431C02D167
S315200021302B6803B1236038BD3825002038B5074DFC
S3152000214004460846114600222A601A46FFF77AF905
S31520002150431C02D12B6803B1236038BD38250020EB
S3152000216038B5064D0023044608462B60FFF710F9C4
S31520002170431C02D12B6803B1236038BD38250020CB
S3152000218038B5074D04460846114600222A601A46ED
S31520002190FFF74EF9431C02D12B6803B1236038BDEB
S315200021A03825002038B5064D0023044608462B6006
S315200021B0FFF750F9431C02D12B6803B1236038BDC9
S315200021C038250020000C024000100240000C02407E
S315200021D00010024010E000E00C00000004000000A7
S315200021E004000000000100020100010101020103B8
S315200021F002000201020202030301030200000000A2
S3152000220000000000000000000000000000000000A8
S315200022100000000000000000000000000000000098
S3152000222000000000D821002000000000000000006F
S315200022300100000001000000A3090020170A002069
S31520002240110F00204F0F00201F0000000500000086
S315200022500800000000000100020003000400000046
S315200022600001000200030004000500060007000824
S3152000227004000401040204030404040504060407FC
S3152000228004080008010802080308040802030204DF
S315200022900205000048220020000000000000000087
S315200022A06E00000032000000A3090020170A00205B
S315200022B0110F00204F0F00204822002000000000B0
S315200022C0000000000A00000032000000A3090020E0
S315200022D0170A0020110F00204F0F0020506C617943
S315200022E0657220312000000000000000010000007F
S315200022F000000000B8220020506C617965722032FF
S3152000230020000000000000000D000000000000007A
S31520002310942200200000000003000000F423002087
S315200023202423002000000000F42300205C24002049
S31520002330C42400200000000000000000000000006F
S315200023400000000000000000000000000000000067
S315200023500000000000000000000000000000000057
S315200023600000000000000000000000000000000047
S3152000237053636F72653A200077696E7321000000FF
S3152000238057656C636F6D6520746F20537570657229
S31520002390706F6E67210000005072657373203520C0
S315200023A0746F2073746172742E000000290000007F
S315200023B00102030A0405060B0708090C0E000F0D7F
S315200023C00102030A0405060B0708090C0E000F0D6F
S315200023D0016C00000172000001750000016400001C
S315200023E000000000000000000000000000000000C7
S315200023F000000000000000000000000000000000B7
S3152000240000000000000000000000000000000000A6
S315200024100000000000000000000000000000000096
S70520000000DA
